{
  "contractName": "Supplychain",
  "abi": [
    {
      "constant": true,
      "inputs": [],
      "name": "owner",
      "outputs": [
        {
          "name": "",
          "type": "address"
        }
      ],
      "payable": false,
      "stateMutability": "view",
      "type": "function",
      "signature": "0x8da5cb5b"
    },
    {
      "inputs": [],
      "payable": false,
      "stateMutability": "nonpayable",
      "type": "constructor",
      "signature": "constructor"
    },
    {
      "anonymous": false,
      "inputs": [
        {
          "indexed": false,
          "name": "productid",
          "type": "uint256"
        },
        {
          "indexed": false,
          "name": "productowner",
          "type": "address"
        }
      ],
      "name": "ProductAdded",
      "type": "event",
      "signature": "0x61394ce83505fd053362beef6b6476dc5cdd4e4dd515dd026ee6ed7f4d473cd0"
    },
    {
      "anonymous": false,
      "inputs": [
        {
          "indexed": false,
          "name": "productid",
          "type": "uint256"
        },
        {
          "indexed": false,
          "name": "supplierAddress",
          "type": "address"
        },
        {
          "indexed": false,
          "name": "ser",
          "type": "uint256"
        },
        {
          "indexed": false,
          "name": "ipfs",
          "type": "string"
        }
      ],
      "name": "Handover",
      "type": "event",
      "signature": "0x32267461a293bb9640a0647d9f7d0c580be2832234508ea00ae49a7f6b60b313"
    },
    {
      "anonymous": false,
      "inputs": [
        {
          "indexed": false,
          "name": "productid",
          "type": "uint256"
        },
        {
          "indexed": false,
          "name": "productOwner",
          "type": "address"
        },
        {
          "indexed": false,
          "name": "finalSE",
          "type": "uint256"
        }
      ],
      "name": "Published",
      "type": "event",
      "signature": "0xd8e69b2b98ea6fb011cfa3d2fc671522d7e7226315807a29df8383fdad6f1c8b"
    },
    {
      "constant": false,
      "inputs": [
        {
          "name": "productid",
          "type": "uint8"
        },
        {
          "name": "supplieraddress",
          "type": "address[]"
        },
        {
          "name": "_productowner",
          "type": "address"
        }
      ],
      "name": "product",
      "outputs": [],
      "payable": false,
      "stateMutability": "nonpayable",
      "type": "function",
      "signature": "0xb27fcd3c"
    },
    {
      "constant": true,
      "inputs": [
        {
          "name": "productid",
          "type": "uint8"
        }
      ],
      "name": "getSuppliersOfProduct",
      "outputs": [
        {
          "name": "",
          "type": "address[]"
        },
        {
          "name": "",
          "type": "uint256"
        }
      ],
      "payable": false,
      "stateMutability": "view",
      "type": "function",
      "signature": "0xce751e6e"
    },
    {
      "constant": false,
      "inputs": [
        {
          "name": "productid",
          "type": "uint8"
        },
        {
          "name": "_index",
          "type": "uint8"
        },
        {
          "name": "_SEscore",
          "type": "uint8"
        },
        {
          "name": "_ipfsHash",
          "type": "string"
        }
      ],
      "name": "producthandover",
      "outputs": [],
      "payable": false,
      "stateMutability": "nonpayable",
      "type": "function",
      "signature": "0x2e82500c"
    },
    {
      "constant": false,
      "inputs": [
        {
          "name": "productid",
          "type": "uint8"
        }
      ],
      "name": "publishproductrecords",
      "outputs": [],
      "payable": false,
      "stateMutability": "nonpayable",
      "type": "function",
      "signature": "0x998014e7"
    },
    {
      "constant": true,
      "inputs": [
        {
          "name": "productid",
          "type": "uint8"
        }
      ],
      "name": "viewproductownerinfo",
      "outputs": [
        {
          "name": "_owner",
          "type": "address"
        },
        {
          "name": "_finalSE",
          "type": "uint256"
        }
      ],
      "payable": false,
      "stateMutability": "view",
      "type": "function",
      "signature": "0x2cef9c29"
    },
    {
      "constant": true,
      "inputs": [
        {
          "name": "productid",
          "type": "uint8"
        },
        {
          "name": "_index",
          "type": "uint8"
        }
      ],
      "name": "viewsupplierinfo",
      "outputs": [
        {
          "name": "",
          "type": "address"
        },
        {
          "name": "",
          "type": "uint256"
        },
        {
          "name": "",
          "type": "string"
        }
      ],
      "payable": false,
      "stateMutability": "view",
      "type": "function",
      "signature": "0xf388a767"
    },
    {
      "constant": true,
      "inputs": [
        {
          "name": "productid",
          "type": "uint8"
        }
      ],
      "name": "productexist",
      "outputs": [
        {
          "name": "",
          "type": "bool"
        }
      ],
      "payable": false,
      "stateMutability": "view",
      "type": "function",
      "signature": "0x293df5ff"
    },
    {
      "constant": true,
      "inputs": [
        {
          "name": "productid",
          "type": "uint8"
        }
      ],
      "name": "cyclecompleted",
      "outputs": [
        {
          "name": "",
          "type": "bool"
        }
      ],
      "payable": false,
      "stateMutability": "view",
      "type": "function",
      "signature": "0xa97783a8"
    },
    {
      "constant": true,
      "inputs": [
        {
          "name": "productid",
          "type": "uint8"
        }
      ],
      "name": "checkPublishStatus",
      "outputs": [
        {
          "name": "",
          "type": "bool"
        }
      ],
      "payable": false,
      "stateMutability": "view",
      "type": "function",
      "signature": "0x2b1e3c94"
    }
  ],
  "bytecode": "0x608060405260008060146101000a81548160ff021916908360ff16021790555034801561002b57600080fd5b50336000806101000a81548173ffffffffffffffffffffffffffffffffffffffff021916908373ffffffffffffffffffffffffffffffffffffffff1602179055506115838061007b6000396000f3fe6080604052600436106100a4576000357c0100000000000000000000000000000000000000000000000000000000900463ffffffff168063293df5ff146100a95780632b1e3c94146100ff5780632cef9c29146101555780632e82500c146101da5780638da5cb5b146102c9578063998014e714610320578063a97783a81461035e578063b27fcd3c146103b4578063ce751e6e146104a6578063f388a76714610540575b600080fd5b3480156100b557600080fd5b506100e5600480360360208110156100cc57600080fd5b81019080803560ff16906020019092919050505061063e565b604051808215151515815260200191505060405180910390f35b34801561010b57600080fd5b5061013b6004803603602081101561012257600080fd5b81019080803560ff1690602001909291905050506106b0565b604051808215151515815260200191505060405180910390f35b34801561016157600080fd5b506101916004803603602081101561017857600080fd5b81019080803560ff1690602001909291905050506106e0565b604051808373ffffffffffffffffffffffffffffffffffffffff1673ffffffffffffffffffffffffffffffffffffffff1681526020018281526020019250505060405180910390f35b3480156101e657600080fd5b506102c7600480360360808110156101fd57600080fd5b81019080803560ff169060200190929190803560ff169060200190929190803560ff1690602001909291908035906020019064010000000081111561024157600080fd5b82018360208201111561025357600080fd5b8035906020019184600183028401116401000000008311171561027557600080fd5b91908080601f016020809104026020016040519081016040528093929190818152602001838380828437600081840152601f19601f820116905080830192505050505050509192919290505050610740565b005b3480156102d557600080fd5b506102de610b5e565b604051808273ffffffffffffffffffffffffffffffffffffffff1673ffffffffffffffffffffffffffffffffffffffff16815260200191505060405180910390f35b34801561032c57600080fd5b5061035c6004803603602081101561034357600080fd5b81019080803560ff169060200190929190505050610b83565b005b34801561036a57600080fd5b5061039a6004803603602081101561038157600080fd5b81019080803560ff169060200190929190505050610ecc565b604051808215151515815260200191505060405180910390f35b3480156103c057600080fd5b506104a4600480360360608110156103d757600080fd5b81019080803560ff1690602001909291908035906020019064010000000081111561040157600080fd5b82018360208201111561041357600080fd5b8035906020019184602083028401116401000000008311171561043557600080fd5b919080806020026020016040519081016040528093929190818152602001838360200280828437600081840152601f19601f820116905080830192505050505050509192919290803573ffffffffffffffffffffffffffffffffffffffff169060200190929190505050610efc565b005b3480156104b257600080fd5b506104e2600480360360208110156104c957600080fd5b81019080803560ff1690602001909291905050506111b8565b6040518080602001838152602001828103825284818151815260200191508051906020019060200280838360005b8381101561052b578082015181840152602081019050610510565b50505050905001935050505060405180910390f35b34801561054c57600080fd5b506105896004803603604081101561056357600080fd5b81019080803560ff169060200190929190803560ff169060200190929190505050611269565b604051808473ffffffffffffffffffffffffffffffffffffffff1673ffffffffffffffffffffffffffffffffffffffff16815260200183815260200180602001828103825283818151815260200191508051906020019080838360005b838110156106015780820151818401526020810190506105e6565b50505050905090810190601f16801561062e5780820380516001836020036101000a031916815260200191505b5094505050505060405180910390f35b60008073ffffffffffffffffffffffffffffffffffffffff16600660008460ff1660ff16815260200190815260200160002060009054906101000a900473ffffffffffffffffffffffffffffffffffffffff1673ffffffffffffffffffffffffffffffffffffffff1614159050919050565b6000600860008360ff1660ff16815260200190815260200160002060009054906101000a900460ff169050919050565b600080600660008460ff1660ff16815260200190815260200160002060009054906101000a900473ffffffffffffffffffffffffffffffffffffffff16600460008560ff1660ff1681526020019081526020016000205491509150915091565b3373ffffffffffffffffffffffffffffffffffffffff16600560008660ff1660ff1681526020019081526020016000208460ff1681548110151561078057fe5b9060005260206000200160009054906101000a900473ffffffffffffffffffffffffffffffffffffffff1673ffffffffffffffffffffffffffffffffffffffff1614151561085c576040517f08c379a000000000000000000000000000000000000000000000000000000000815260040180806020018281038252602a8152602001807f4e6f74206120737570706c696572206f6620746869732070726f64756374207381526020017f7570706c79636861696e0000000000000000000000000000000000000000000081525060400191505060405180910390fd5b81600260008660ff1660ff16815260200190815260200160002060008560ff1660ff16815260200190815260200160002060000160006101000a81548160ff021916908360ff16021790555080600260008660ff1660ff16815260200190815260200160002060008560ff1660ff16815260200190815260200160002060010190805190602001906108ef9291906113e5565b50600660008560ff1660ff16815260200190815260200160002060009054906101000a900473ffffffffffffffffffffffffffffffffffffffff1673ffffffffffffffffffffffffffffffffffffffff163373ffffffffffffffffffffffffffffffffffffffff161415610990576001600760008660ff1660ff16815260200190815260200160002060006101000a81548160ff0219169083151502179055505b7f32267461a293bb9640a0647d9f7d0c580be2832234508ea00ae49a7f6b60b31384600560008760ff1660ff1681526020019081526020016000208560ff168154811015156109db57fe5b9060005260206000200160009054906101000a900473ffffffffffffffffffffffffffffffffffffffff16600260008860ff1660ff16815260200190815260200160002060008760ff1660ff16815260200190815260200160002060000160009054906101000a900460ff16600260008960ff1660ff16815260200190815260200160002060008860ff1660ff168152602001908152602001600020600101604051808560ff1681526020018473ffffffffffffffffffffffffffffffffffffffff1673ffffffffffffffffffffffffffffffffffffffff1681526020018360ff16815260200180602001828103825283818154600181600116156101000203166002900481526020019150805460018160011615610100020316600290048015610b475780601f10610b1c57610100808354040283529160200191610b47565b820191906000526020600020905b815481529060010190602001808311610b2a57829003601f168201915b50509550505050505060405180910390a150505050565b6000809054906101000a900473ffffffffffffffffffffffffffffffffffffffff1681565b3373ffffffffffffffffffffffffffffffffffffffff16600660008360ff1660ff16815260200190815260200160002060009054906101000a900473ffffffffffffffffffffffffffffffffffffffff1673ffffffffffffffffffffffffffffffffffffffff16141515610c85576040517f08c379a00000000000000000000000000000000000000000000000000000000081526004018080602001828103825260348152602001807f536f7272792c20796f7520617265206e6f74207468652070726f64756374206f81526020017f776e6572206f6620746869732070726f6475637400000000000000000000000081525060400191505060405180910390fd5b6000600460008360ff1660ff1681526020019081526020016000208190555060008060146101000a81548160ff021916908360ff1602179055505b600154600060149054906101000a900460ff1660ff161015610d8b57600260008260ff1660ff16815260200190815260200160002060008060149054906101000a900460ff1660ff1660ff16815260200190815260200160002060000160009054906101000a900460ff1660ff16600460008360ff1660ff168152602001908152602001600020600082825401925050819055506000601481819054906101000a900460ff168092919060010191906101000a81548160ff021916908360ff16021790555050610cc0565b600154600460008360ff1660ff16815260200190815260200160002054811515610db157fe5b04600460008360ff1660ff168152602001908152602001600020819055506001600860008360ff1660ff16815260200190815260200160002060006101000a81548160ff0219169083151502179055507fd8e69b2b98ea6fb011cfa3d2fc671522d7e7226315807a29df8383fdad6f1c8b81600660008460ff1660ff16815260200190815260200160002060009054906101000a900473ffffffffffffffffffffffffffffffffffffffff16600460008560ff1660ff16815260200190815260200160002054604051808460ff1681526020018373ffffffffffffffffffffffffffffffffffffffff1673ffffffffffffffffffffffffffffffffffffffff168152602001828152602001935050505060405180910390a150565b6000600760008360ff1660ff16815260200190815260200160002060009054906101000a900460ff169050919050565b6000809054906101000a900473ffffffffffffffffffffffffffffffffffffffff1673ffffffffffffffffffffffffffffffffffffffff163373ffffffffffffffffffffffffffffffffffffffff16141515610fe6576040517f08c379a000000000000000000000000000000000000000000000000000000000815260040180806020018281038252602c8152602001807f4572726f723a2054686973206f7065726174696f6e206973206f6e6c7920666f81526020017f7220746865204f776e657221000000000000000000000000000000000000000081525060400191505060405180910390fd5b80600660008560ff1660ff16815260200190815260200160002060006101000a81548173ffffffffffffffffffffffffffffffffffffffff021916908373ffffffffffffffffffffffffffffffffffffffff16021790555081600560008560ff1660ff168152602001908152602001600020908051906020019061106b929190611465565b50600560008460ff1660ff1681526020019081526020016000208190806001815401808255809150509060018203906000526020600020016000909192909190916101000a81548173ffffffffffffffffffffffffffffffffffffffff021916908373ffffffffffffffffffffffffffffffffffffffff16021790555050600560008460ff1660ff168152602001908152602001600020805490506001819055507f61394ce83505fd053362beef6b6476dc5cdd4e4dd515dd026ee6ed7f4d473cd083600660008660ff1660ff16815260200190815260200160002060009054906101000a900473ffffffffffffffffffffffffffffffffffffffff16604051808360ff1681526020018273ffffffffffffffffffffffffffffffffffffffff1673ffffffffffffffffffffffffffffffffffffffff1681526020019250505060405180910390a1505050565b60606000600560008460ff1660ff1681526020019081526020016000206001548180548060200260200160405190810160405280929190818152602001828054801561125957602002820191906000526020600020905b8160009054906101000a900473ffffffffffffffffffffffffffffffffffffffff1673ffffffffffffffffffffffffffffffffffffffff168152602001906001019080831161120f575b5050505050915091509150915091565b6000806060600560008660ff1660ff1681526020019081526020016000208460ff1681548110151561129757fe5b9060005260206000200160009054906101000a900473ffffffffffffffffffffffffffffffffffffffff16600260008760ff1660ff16815260200190815260200160002060008660ff1660ff16815260200190815260200160002060000160009054906101000a900460ff16600260008860ff1660ff16815260200190815260200160002060008760ff1660ff1681526020019081526020016000206001018160ff169150808054600181600116156101000203166002900480601f0160208091040260200160405190810160405280929190818152602001828054600181600116156101000203166002900480156113d15780601f106113a6576101008083540402835291602001916113d1565b820191906000526020600020905b8154815290600101906020018083116113b457829003601f168201915b505050505090509250925092509250925092565b828054600181600116156101000203166002900490600052602060002090601f016020900481019282601f1061142657805160ff1916838001178555611454565b82800160010185558215611454579182015b82811115611453578251825591602001919060010190611438565b5b50905061146191906114ef565b5090565b8280548282559060005260206000209081019282156114de579160200282015b828111156114dd5782518260006101000a81548173ffffffffffffffffffffffffffffffffffffffff021916908373ffffffffffffffffffffffffffffffffffffffff16021790555091602001919060010190611485565b5b5090506114eb9190611514565b5090565b61151191905b8082111561150d5760008160009055506001016114f5565b5090565b90565b61155491905b8082111561155057600081816101000a81549073ffffffffffffffffffffffffffffffffffffffff02191690555060010161151a565b5090565b9056fea165627a7a723058208ab659e890808629db39e7caa8bf8c97f7186ecf98e0b84bff7d2b1f236dbf8e0029",
  "source": "pragma solidity >0.4.0 <0.6.0;\n\ncontract Supplychain {\n\n    address public owner;\n    uint8    i = 0;\n    uint    numofsuppliers;\n    \n    event ProductAdded(uint productid, address productowner);\n    event Handover(uint productid, address supplierAddress, uint ser, string ipfs);\n    event Published(uint productid, address productOwner, uint finalSE);\n    \n    struct  supplier_struct{\n        uint8    SEscore;\n        string  ipfsHash;\n    }\n    \n    mapping (uint8 => mapping( uint8 => supplier_struct)) product_SE;\n    mapping (uint8 => uint) countofsuppliers;\n    mapping (uint8 => uint) finalSE;\n    mapping (uint8 => address[]) productsupplychain;\n    mapping (uint8 => address) productowner;\n    mapping (uint8 => bool) cyclecomplete;\n    mapping (uint8 => bool) published;\n    \n    constructor() public{\n        owner = msg.sender;\n    }\n    \n    // check if the owner is the current user\n    modifier onlyowner {\n        require(msg.sender == owner, \"Error: This operation is only for the Owner!\");\n        _;\n    }\n    \n    // Update Product info to blockchain. Only accessible to admin.\n    function product(uint8 productid, address[] memory supplieraddress, address _productowner) public onlyowner {\n        productowner[productid] = _productowner;\n        productsupplychain[productid] = (supplieraddress);\n        // Adding Product owner to the suppliers array, so that we can get the owner info \n        // and also, include the owner to the final SE calculation.\n        productsupplychain[productid].push(_productowner);\n        numofsuppliers = productsupplychain[productid].length;\n        emit ProductAdded(productid, productowner[productid]);\n    }\n\n    // To view the number of suppliers and their wallet addresses.\n    function getSuppliersOfProduct(uint8 productid) public view returns(address[] memory, uint) {\n        return(productsupplychain[productid], numofsuppliers);\n    }\n    \n    // The below function is to update the information of the component delivered by each supplier\n    // and also for the product owner to update their own information for the product.\n    function producthandover(uint8 productid,uint8 _index, uint8 _SEscore, string memory _ipfsHash) public {\n        require(productsupplychain[productid][_index]==msg.sender, \"Not a supplier of this product supplychain\");\n        product_SE[productid][_index].SEscore = _SEscore;\n        product_SE[productid][_index].ipfsHash = _ipfsHash;\n        // A cycle is completed by the product owner.\n        if(msg.sender == productowner[productid]){\n            cyclecomplete[productid] = true;\n        }\n        // Trigger event to transfer\n        emit Handover(\n            productid, \n            productsupplychain[productid][_index], \n            product_SE[productid][_index].SEscore, \n            product_SE[productid][_index].ipfsHash\n        );\n    }\n    \n    // To publish the final SE score of the product.\n    function publishproductrecords(uint8 productid) public {\n        require(productowner[productid] == msg.sender, \"Sorry, you are not the product owner of this product\");\n        finalSE[productid] = 0;\n        for(i = 0; i<numofsuppliers; i++) {\n            finalSE[productid] += product_SE[productid][i].SEscore;\n        }\n        finalSE[productid] = finalSE[productid]/numofsuppliers;\n        // Indicates whether the product is officailly published or not.\n        published[productid] = true;\n        emit Published(productid, productowner[productid], finalSE[productid]);\n    }\n\n    //View product owner information\n    function viewproductownerinfo(uint8 productid) public view returns(address _owner, uint _finalSE) {\n        return(productowner[productid], finalSE[productid]);\n    }\n    \n    //view the information provided by a specific supplier\n    function viewsupplierinfo(uint8 productid, uint8 _index) public view returns(address, uint, string memory) {\n        return(productsupplychain[productid][_index], product_SE[productid][_index].SEscore, product_SE[productid][_index].ipfsHash);\n    }\n    \n    //check if product is registered\n    function productexist(uint8 productid) public view returns(bool) {\n        return(productowner[productid]!=address(0));\n    }\n\n    //check if the suplychain cycle is complete.\n    function cyclecompleted(uint8 productid) public view returns(bool) {\n        return cyclecomplete[productid];\n    }\n\n    //check if the product is successfully published.\n    function checkPublishStatus(uint8 productid) public view returns(bool) {\n        return published[productid];\n    }\n\n}\n",
  "sourcePath": "/home/sabir/Workplace/KBA/CEB B1 evaluation/provenance_engine/contracts/SupplyChain.sol",
  "compiler": {
    "name": "solc",
    "version": "0.5.0+commit.1d4f565a.Emscripten.clang"
  },
  "schemaVersion": "3.0.3",
  "updatedAt": "2019-04-30T06:16:04.585Z",
  "devdoc": {
    "methods": {}
  },
  "userdoc": {
    "methods": {}
  }
}